{
  "contractName": "Dummy_Token",
  "abi": [
    {
      "inputs": [],
      "stateMutability": "nonpayable",
      "type": "constructor"
    },
    {
      "anonymous": false,
      "inputs": [
        {
          "indexed": true,
          "internalType": "address",
          "name": "_owner",
          "type": "address"
        },
        {
          "indexed": true,
          "internalType": "address",
          "name": "_spender",
          "type": "address"
        },
        {
          "indexed": false,
          "internalType": "uint256",
          "name": "_value",
          "type": "uint256"
        }
      ],
      "name": "Approve",
      "type": "event"
    },
    {
      "anonymous": false,
      "inputs": [
        {
          "indexed": true,
          "internalType": "address",
          "name": "_from",
          "type": "address"
        },
        {
          "indexed": true,
          "internalType": "address",
          "name": "_to",
          "type": "address"
        },
        {
          "indexed": false,
          "internalType": "uint256",
          "name": "_value",
          "type": "uint256"
        }
      ],
      "name": "Transfer",
      "type": "event"
    },
    {
      "inputs": [
        {
          "internalType": "address",
          "name": "",
          "type": "address"
        },
        {
          "internalType": "address",
          "name": "",
          "type": "address"
        }
      ],
      "name": "allowance",
      "outputs": [
        {
          "internalType": "uint256",
          "name": "",
          "type": "uint256"
        }
      ],
      "stateMutability": "view",
      "type": "function",
      "constant": true
    },
    {
      "inputs": [
        {
          "internalType": "address",
          "name": "",
          "type": "address"
        }
      ],
      "name": "balance",
      "outputs": [
        {
          "internalType": "uint256",
          "name": "",
          "type": "uint256"
        }
      ],
      "stateMutability": "view",
      "type": "function",
      "constant": true
    },
    {
      "inputs": [],
      "name": "decimal",
      "outputs": [
        {
          "internalType": "uint256",
          "name": "",
          "type": "uint256"
        }
      ],
      "stateMutability": "view",
      "type": "function",
      "constant": true
    },
    {
      "inputs": [],
      "name": "name",
      "outputs": [
        {
          "internalType": "string",
          "name": "",
          "type": "string"
        }
      ],
      "stateMutability": "view",
      "type": "function",
      "constant": true
    },
    {
      "inputs": [],
      "name": "symbol",
      "outputs": [
        {
          "internalType": "string",
          "name": "",
          "type": "string"
        }
      ],
      "stateMutability": "view",
      "type": "function",
      "constant": true
    },
    {
      "inputs": [],
      "name": "totalsupply",
      "outputs": [
        {
          "internalType": "uint256",
          "name": "",
          "type": "uint256"
        }
      ],
      "stateMutability": "view",
      "type": "function",
      "constant": true
    },
    {
      "inputs": [
        {
          "internalType": "address",
          "name": "_to",
          "type": "address"
        },
        {
          "internalType": "uint256",
          "name": "_value",
          "type": "uint256"
        }
      ],
      "name": "transfer",
      "outputs": [
        {
          "internalType": "bool",
          "name": "",
          "type": "bool"
        }
      ],
      "stateMutability": "nonpayable",
      "type": "function"
    },
    {
      "inputs": [
        {
          "internalType": "address",
          "name": "_spender",
          "type": "address"
        },
        {
          "internalType": "uint256",
          "name": "_value",
          "type": "uint256"
        }
      ],
      "name": "approve",
      "outputs": [
        {
          "internalType": "bool",
          "name": "success",
          "type": "bool"
        }
      ],
      "stateMutability": "nonpayable",
      "type": "function"
    },
    {
      "inputs": [
        {
          "internalType": "address",
          "name": "_from",
          "type": "address"
        },
        {
          "internalType": "address",
          "name": "_to",
          "type": "address"
        },
        {
          "internalType": "uint256",
          "name": "_value",
          "type": "uint256"
        }
      ],
      "name": "transferfrom",
      "outputs": [
        {
          "internalType": "bool",
          "name": "success",
          "type": "bool"
        }
      ],
      "stateMutability": "nonpayable",
      "type": "function"
    }
  ],
  "bytecode": "0x60806040526040518060400160405280600b81526020017f64756d6d7920746f6b656e00000000000000000000000000000000000000000081525060009080519060200190620000519291906200010d565b506040518060400160405280600981526020017f64756d20746f6b656e0000000000000000000000000000000000000000000000815250600190805190602001906200009f9291906200010d565b5069d3c21bcecceda10000006002556012600355348015620000c057600080fd5b50600254600460003373ffffffffffffffffffffffffffffffffffffffff1673ffffffffffffffffffffffffffffffffffffffff1681526020019081526020016000208190555062000222565b8280546200011b90620001ec565b90600052602060002090601f0160209004810192826200013f57600085556200018b565b82601f106200015a57805160ff19168380011785556200018b565b828001600101855582156200018b579182015b828111156200018a5782518255916020019190600101906200016d565b5b5090506200019a91906200019e565b5090565b5b80821115620001b95760008160009055506001016200019f565b5090565b7f4e487b7100000000000000000000000000000000000000000000000000000000600052602260045260246000fd5b600060028204905060018216806200020557607f821691505b602082108114156200021c576200021b620001bd565b5b50919050565b610bf480620002326000396000f3fe608060405234801561001057600080fd5b50600436106100935760003560e01c806376809ce31161006657806376809ce31461013457806395d89b4114610152578063a9059cbb14610170578063dd62ed3e146101a0578063e3d670d7146101d057610093565b806306fdde0314610098578063095ea7b3146100b657806363b0545f146100e657806372dd529b14610116575b600080fd5b6100a0610200565b6040516100ad9190610889565b60405180910390f35b6100d060048036038101906100cb9190610944565b61028e565b6040516100dd919061099f565b60405180910390f35b61010060048036038101906100fb91906109ba565b610380565b60405161010d919061099f565b60405180910390f35b61011e6105b0565b60405161012b9190610a1c565b60405180910390f35b61013c6105b6565b6040516101499190610a1c565b60405180910390f35b61015a6105bc565b6040516101679190610889565b60405180910390f35b61018a60048036038101906101859190610944565b61064a565b604051610197919061099f565b60405180910390f35b6101ba60048036038101906101b59190610a37565b6107b3565b6040516101c79190610a1c565b60405180910390f35b6101ea60048036038101906101e59190610a77565b6107d8565b6040516101f79190610a1c565b60405180910390f35b6000805461020d90610ad3565b80601f016020809104026020016040519081016040528092919081815260200182805461023990610ad3565b80156102865780601f1061025b57610100808354040283529160200191610286565b820191906000526020600020905b81548152906001019060200180831161026957829003601f168201915b505050505081565b600081600560003373ffffffffffffffffffffffffffffffffffffffff1673ffffffffffffffffffffffffffffffffffffffff16815260200190815260200160002060008573ffffffffffffffffffffffffffffffffffffffff1673ffffffffffffffffffffffffffffffffffffffff168152602001908152602001600020819055508273ffffffffffffffffffffffffffffffffffffffff163373ffffffffffffffffffffffffffffffffffffffff167f6e11fb1b7f119e3f2fa29896ef5fdf8b8a2d0d4df6fe90ba8668e7d8b2ffa25e8460405161036e9190610a1c565b60405180910390a36001905092915050565b6000600460008573ffffffffffffffffffffffffffffffffffffffff1673ffffffffffffffffffffffffffffffffffffffff168152602001908152602001600020548211156103ce57600080fd5b600560008573ffffffffffffffffffffffffffffffffffffffff1673ffffffffffffffffffffffffffffffffffffffff16815260200190815260200160002060003373ffffffffffffffffffffffffffffffffffffffff1673ffffffffffffffffffffffffffffffffffffffff1681526020019081526020016000205482111561045757600080fd5b81600460008673ffffffffffffffffffffffffffffffffffffffff1673ffffffffffffffffffffffffffffffffffffffff16815260200190815260200160002060008282546104a69190610b34565b9250508190555081600560008673ffffffffffffffffffffffffffffffffffffffff1673ffffffffffffffffffffffffffffffffffffffff16815260200190815260200160002060003373ffffffffffffffffffffffffffffffffffffffff1673ffffffffffffffffffffffffffffffffffffffff16815260200190815260200160002060008282546105399190610b34565b925050819055508273ffffffffffffffffffffffffffffffffffffffff168473ffffffffffffffffffffffffffffffffffffffff167fddf252ad1be2c89b69c2b068fc378daa952ba7f163c4a11628f55a4df523b3ef8460405161059d9190610a1c565b60405180910390a3600190509392505050565b60025481565b60035481565b600180546105c990610ad3565b80601f01602080910402602001604051908101604052809291908181526020018280546105f590610ad3565b80156106425780601f1061061757610100808354040283529160200191610642565b820191906000526020600020905b81548152906001019060200180831161062557829003601f168201915b505050505081565b600081600460003373ffffffffffffffffffffffffffffffffffffffff1673ffffffffffffffffffffffffffffffffffffffff16815260200190815260200160002054111561069857600080fd5b81600460003373ffffffffffffffffffffffffffffffffffffffff1673ffffffffffffffffffffffffffffffffffffffff16815260200190815260200160002060008282546106e79190610b34565b9250508190555081600460008573ffffffffffffffffffffffffffffffffffffffff1673ffffffffffffffffffffffffffffffffffffffff168152602001908152602001600020600082825461073d9190610b68565b925050819055508273ffffffffffffffffffffffffffffffffffffffff163373ffffffffffffffffffffffffffffffffffffffff167fddf252ad1be2c89b69c2b068fc378daa952ba7f163c4a11628f55a4df523b3ef846040516107a19190610a1c565b60405180910390a36001905092915050565b6005602052816000526040600020602052806000526040600020600091509150505481565b60046020528060005260406000206000915090505481565b600081519050919050565b600082825260208201905092915050565b60005b8381101561082a57808201518184015260208101905061080f565b83811115610839576000848401525b50505050565b6000601f19601f8301169050919050565b600061085b826107f0565b61086581856107fb565b935061087581856020860161080c565b61087e8161083f565b840191505092915050565b600060208201905081810360008301526108a38184610850565b905092915050565b600080fd5b600073ffffffffffffffffffffffffffffffffffffffff82169050919050565b60006108db826108b0565b9050919050565b6108eb816108d0565b81146108f657600080fd5b50565b600081359050610908816108e2565b92915050565b6000819050919050565b6109218161090e565b811461092c57600080fd5b50565b60008135905061093e81610918565b92915050565b6000806040838503121561095b5761095a6108ab565b5b6000610969858286016108f9565b925050602061097a8582860161092f565b9150509250929050565b60008115159050919050565b61099981610984565b82525050565b60006020820190506109b46000830184610990565b92915050565b6000806000606084860312156109d3576109d26108ab565b5b60006109e1868287016108f9565b93505060206109f2868287016108f9565b9250506040610a038682870161092f565b9150509250925092565b610a168161090e565b82525050565b6000602082019050610a316000830184610a0d565b92915050565b60008060408385031215610a4e57610a4d6108ab565b5b6000610a5c858286016108f9565b9250506020610a6d858286016108f9565b9150509250929050565b600060208284031215610a8d57610a8c6108ab565b5b6000610a9b848285016108f9565b91505092915050565b7f4e487b7100000000000000000000000000000000000000000000000000000000600052602260045260246000fd5b60006002820490506001821680610aeb57607f821691505b60208210811415610aff57610afe610aa4565b5b50919050565b7f4e487b7100000000000000000000000000000000000000000000000000000000600052601160045260246000fd5b6000610b3f8261090e565b9150610b4a8361090e565b925082821015610b5d57610b5c610b05565b5b828203905092915050565b6000610b738261090e565b9150610b7e8361090e565b9250827fffffffffffffffffffffffffffffffffffffffffffffffffffffffffffffffff03821115610bb357610bb2610b05565b5b82820190509291505056fea26469706673582212202c9725fe67e78385befdf6345ece0d4867d0842bf11d5d3ca33b82f73c1eea0864736f6c634300080a0033",
  "immutableReferences": {},
  "source": "// SPDX-License-Identifier: MIT\npragma solidity >=0.4.22 <0.9.0;\n\ncontract Dummy_Token{\n\n    string public name = \"dummy token\";\n    string public symbol = \"dum token\";\n    uint public totalsupply = 1000000000000000000000000;\n    uint public decimal = 18;\n\n    event Transfer(\n        \n        address indexed _from,\n        address indexed _to,\n        uint _value\n    );\n\n    event Approve(\n\n        address indexed _owner,\n        address indexed _spender,\n        uint _value\n    );\n\n    mapping(address => uint256) public balance;\n    mapping(address => mapping(address => uint256)) public allowance;\n\n\n    constructor() public{\n        balance[msg.sender] = totalsupply;\n    }\n\n    function transfer(address _to, uint256 _value) public returns(bool) {\n        require(balance[msg.sender] <= _value);\n        balance[msg.sender] -= _value;\n        balance[_to] += _value;\n        emit Transfer(msg.sender, _to, _value);\n        return true;\n    }\n\n    function approve(address _spender, uint256 _value) public returns(bool success){\n        allowance[msg.sender][_spender] = _value;\n        emit Approve(msg.sender, _spender, _value);\n        return true; \n    }   \n\n    function transferfrom(address _from, address _to, uint256 _value) public returns(bool success){\n        require(_value <= balance[_from]);\n        require(_value <= allowance[_from][msg.sender]);\n        balance[_from] -= _value;\n        allowance[_from][msg.sender] -= _value;\n        emit Transfer(_from,_to,_value);\n        return true;\n    }\n}",
  "sourcePath": "/home/rtonycloud/Documents/blockchain/staking-app/src/contracts/Dummy_Token.sol",
  "compiler": {
    "name": "solc",
    "version": "0.8.10+commit.fc410830.Emscripten.clang"
  },
  "schemaVersion": "3.4.3",
  "updatedAt": "2021-12-25T02:43:27.043Z",
  "networkType": "ethereum",
  "devdoc": {
    "kind": "dev",
    "methods": {},
    "version": 1
  },
  "userdoc": {
    "kind": "user",
    "methods": {},
    "version": 1
  }
}